S014000041737369676E6D656E7420312E73726563A6
S113000012C0DAC1C3C190C029C028C027C026C00D
S1130010C5C024C023C022C021C020C01FC01EC030
S11300201DC01CC01BC011241FBECFE5D4E0DEBF21
S1130030CDBF10E0A0E6B0E0E6EEF5E002C005902A
S11300400D92A436B107D9F720E0A4E6B0E001C0D0
S11300501D92A337B207E1F70ED2C3C2D1CFCF931B
S1130060DF931F92CDB7DEB78091630020917100BA
S1130070309172004AEF849FC00111242817390778
S113008008F44EC080916D00882339F080916E0091
S113009090916F00892B09F443C080916E00909178
S11300A06F0025B341E050E0BA0102C0660F771F2C
S11300B08A95E2F7CB01822B85BB80916E009091EB
S11300C06F00019690936F0080936E00E0916E0034
S11300D0F0916F009F01ABEABAEA41D296958795F9
S11300E09C01220F331F820F931FE81BF90BE98336
S11300F0898190E090936F0080936E0020916E0050
S113010030916F0085B302C0440F551F2A95E2F762
S113011040955095482345BB10927200109271008F
S11301200F90DF91CF9108951F920F920FB60F9207
S113013011242F933F934F935F936F937F938F93E8
S11301409F93AF93BF93EF93FF9380916B00909134
S11301506C00019690936C0080936B00809170000A
S11301608F5F80937000809171009091720001966E
S1130170909372008093710072DFFF91EF91BF91B1
S1130180AF919F918F917F916F915F914F913F912B
S11301902F910F900FBE0F901F9018951F920F92E2
S11301A00FB60F9211240F900FBE0F901F90189549
S11301B0809168008823C1F0809167008430A0F4A6
S11301C0809170008A3F80F098B380E1892788BBD2
S11301D095B380E2892785BB809167008F5F809308
S11301E067001092700008C080916700843020F08E
S11301F0109267001092680080916D00813099F52B
S113020080917100909172008A3F910560F1809114
S11302106E0090916F00892B31F590916000809170
S11302206300981313C08091630020917100309192
S113023072004AEF849FC00111242817390798F0EF
S113024010927200109271001092600095B388E0D1
S1130250892785BB809160008F5F80936000109236
S11302607200109271000895CF93DF9300D000D0F4
S1130270CDB7DEB780916D008130B1F4809162001A
S113028081FF12C0819910C080916E0090916F001F
S1130290892B51F410926D0010927200109271002B
S11302A010926000AB9A0DC080916D00811109C05D
S11302B08091620081FF05C0819903C081E0809331
S11302C06D0080B38093620080916D00882369F192
S11302D080916E0090916F00892B39F510926F0018
S11302E010926E00369A3699FECF84B195B19C83F4
S11302F08B838B819C81892F99270196880F991F65
S11303009A8389838091630029813A8190E08217DE
S1130310930739F0109260001092720010927100ED
S1130320AB9A89819A81809363000F900F900F900C
S11303300F90DF91CF910895809924C0809161003E
S113034080FF20C080916E0090916F00892BD1F4C2
S113035080916800811106C081E0809368008AEF73
S113036080937000809164008F5F8093640080911B
S113037064002FEF829FC001112464E670E0C0D0B6
S113038079BD68BD80B38093610008951F920F9278
S11303900FB60F9211248F939F9310926C001092BA
S11303A06B0098B381E0892788BB9F918F910F9050
S11303B00FBE0F901F9018951F920F920FB60F92B9
S11303C011242F933F934F935F936F937F938F9356
S11303D09F93AF93BF93EF93FF9380916B009091A2
S11303E06C009093660080936500209165003091C5
S11303F0660040E050E060EA7CE880E090E093D062
S113040030936A00209369008091690090916A009A
S11304108436910550F084E690E090936A008093CE
S1130420690098B381E0892788BB80916900909125
S11304306A004FEF489F9001499F300D1124369573
S1130440279536952795ABE7B4E189D0969587959E
S11304509BBD8ABDFF91EF91BF91AF919F918F9109
S11304607F916F915F914F913F912F910F900FBEAC
S11304700F901F90189587B38F6387BBC09A84B37E
S11304808F6284BB85B3886285BBA49881B3807C6A
S113049081BB8BB780648BBF85B7836085BF8BB707
S11304A080688BBF85B7886085BF85B78B7F85BF24
S11304B089B7846889BF85B58A6085BD1BBC1ABCB1
S11304C019BC18BC8FEF83BD8FB581688FBD8EB505
S11304D08C608EBD8FB580628FBD8DEB90E09DBD2D
S11304E08CBD17B887B1847F87B93A9A379A86B199
S11304F0836086B978940000B7DE1EDF59DEFBCF37
S113050097FB072E16F4009406D077FD08D033D05D
S113051007FC05D03EF4909581959F4F0895709502
S113052061957F4F0895052E97FB16F400940FD024
S113053057FD05D034D007FC02D046F408C05095CE
S11305404095309521953F4F4F4F5F4F08959095BB
S11305508095709561957F4F8F4F9F4F0895A29F0F
S1130560B001B39FC001A39F01D0B29F700D811D44
S11305701124911D0895AA1BBB1B51E107C0AA1F9A
S1130580BB1FA617B70710F0A61BB70B881F991F30
S11305905A95A9F780959095BC01CD010895A1E2E3
S11305A01A2EAA1BBB1BFD010DC0AA1FBB1FEE1FE9
S11305B0FF1FA217B307E407F50720F0A21BB30B34
S11305C0E40BF50B661F771F881F991F1A9469F7B0
S11305D060957095809590959B01AC01BD01CF010C
S10905E00895F894FFCF1A
S10705E60101010208
S9030000FC
